{
  "_format": "hh-sol-artifact-1",
  "contractName": "SimpleStorage",
  "sourceName": "contracts/SimpleStorage.sol",
  "abi": [
    {
      "inputs": [],
      "stateMutability": "nonpayable",
      "type": "constructor"
    },
    {
      "anonymous": false,
      "inputs": [
        {
          "indexed": true,
          "internalType": "address",
          "name": "author",
          "type": "address"
        },
        {
          "indexed": false,
          "internalType": "string",
          "name": "oldValue",
          "type": "string"
        },
        {
          "indexed": false,
          "internalType": "string",
          "name": "newValue",
          "type": "string"
        }
      ],
      "name": "ValueChanged",
      "type": "event"
    },
    {
      "inputs": [],
      "name": "getValue",
      "outputs": [
        {
          "internalType": "string",
          "name": "_value",
          "type": "string"
        }
      ],
      "stateMutability": "view",
      "type": "function"
    },
    {
      "inputs": [
        {
          "internalType": "string",
          "name": "value",
          "type": "string"
        }
      ],
      "name": "setValue",
      "outputs": [],
      "stateMutability": "nonpayable",
      "type": "function"
    }
  ],
  "bytecode": "0x608060405234801561001057600080fd5b506100556040518060400160405280600481526020017f4f70656c0000000000000000000000000000000000000000000000000000000081525061005a60201b60201c565b61032e565b3373ffffffffffffffffffffffffffffffffffffffff167fe826f71647b8486f2bae59832124c70792fba044036720a54ec8dacdd5df4fcb6000836040516100a3929190610221565b60405180910390a280600090805190602001906100c19291906100c5565b5050565b8280546100d1906102bc565b90600052602060002090601f0160209004810192826100f3576000855561013a565b82601f1061010c57805160ff191683800117855561013a565b8280016001018555821561013a579182015b8281111561013957825182559160200191906001019061011e565b5b509050610147919061014b565b5090565b5b8082111561016457600081600090555060010161014c565b5090565b60006101738261026d565b61017d8185610278565b935061018d818560208601610289565b6101968161031d565b840191505092915050565b600081546101ae816102bc565b6101b88186610278565b945060018216600081146101d357600181146101e557610218565b60ff1983168652602086019350610218565b6101ee85610258565b60005b83811015610210578154818901526001820191506020810190506101f1565b808801955050505b50505092915050565b6000604082019050818103600083015261023b81856101a1565b9050818103602083015261024f8184610168565b90509392505050565b60008190508160005260206000209050919050565b600081519050919050565b600082825260208201905092915050565b60005b838110156102a757808201518184015260208101905061028c565b838111156102b6576000848401525b50505050565b600060028204905060018216806102d457607f821691505b602082108114156102e8576102e76102ee565b5b50919050565b7f4e487b7100000000000000000000000000000000000000000000000000000000600052602260045260246000fd5b6000601f19601f8301169050919050565b6104ee8061033d6000396000f3fe608060405234801561001057600080fd5b50600436106100365760003560e01c8063209652551461003b57806393a0935214610059575b600080fd5b610043610075565b60405161005091906102ea565b60405180910390f35b610073600480360381019061006e91906101f0565b61007a565b005b606090565b3373ffffffffffffffffffffffffffffffffffffffff167fe826f71647b8486f2bae59832124c70792fba044036720a54ec8dacdd5df4fcb6000836040516100c392919061030c565b60405180910390a280600090805190602001906100e19291906100e5565b5050565b8280546100f190610417565b90600052602060002090601f016020900481019282610113576000855561015a565b82601f1061012c57805160ff191683800117855561015a565b8280016001018555821561015a579182015b8281111561015957825182559160200191906001019061013e565b5b509050610167919061016b565b5090565b5b8082111561018457600081600090555060010161016c565b5090565b600061019b61019684610374565b610343565b9050828152602081018484840111156101b357600080fd5b6101be8482856103d5565b509392505050565b600082601f8301126101d757600080fd5b81356101e7848260208601610188565b91505092915050565b60006020828403121561020257600080fd5b600082013567ffffffffffffffff81111561021c57600080fd5b610228848285016101c6565b91505092915050565b600061023c826103b9565b61024681856103c4565b93506102568185602086016103e4565b61025f816104a7565b840191505092915050565b6000815461027781610417565b61028181866103c4565b9450600182166000811461029c57600181146102ae576102e1565b60ff19831686526020860193506102e1565b6102b7856103a4565b60005b838110156102d9578154818901526001820191506020810190506102ba565b808801955050505b50505092915050565b600060208201905081810360008301526103048184610231565b905092915050565b60006040820190508181036000830152610326818561026a565b9050818103602083015261033a8184610231565b90509392505050565b6000604051905081810181811067ffffffffffffffff8211171561036a57610369610478565b5b8060405250919050565b600067ffffffffffffffff82111561038f5761038e610478565b5b601f19601f8301169050602081019050919050565b60008190508160005260206000209050919050565b600081519050919050565b600082825260208201905092915050565b82818337600083830152505050565b60005b838110156104025780820151818401526020810190506103e7565b83811115610411576000848401525b50505050565b6000600282049050600182168061042f57607f821691505b6020821081141561044357610442610449565b5b50919050565b7f4e487b7100000000000000000000000000000000000000000000000000000000600052602260045260246000fd5b7f4e487b7100000000000000000000000000000000000000000000000000000000600052604160045260246000fd5b6000601f19601f830116905091905056fea26469706673582212206a3760d03184f2b4c2b2723e5c41c328263c8c0b995b9791c9b9fa13b65d8d9164736f6c63430008000033",
  "linkReferences": {},
  "deployedLinkReferences": {}
}