{
  "_format": "hh-sol-artifact-1",
  "contractName": "ModelFactory",
  "sourceName": "contracts/ModelFactory.sol",
  "abi": [
    {
      "inputs": [],
      "stateMutability": "nonpayable",
      "type": "constructor"
    },
    {
      "anonymous": false,
      "inputs": [
        {
          "indexed": false,
          "internalType": "uint256",
          "name": "ModelId",
          "type": "uint256"
        },
        {
          "indexed": false,
          "internalType": "string",
          "name": "name",
          "type": "string"
        },
        {
          "indexed": false,
          "internalType": "uint256",
          "name": "dna",
          "type": "uint256"
        }
      ],
      "name": "NewModel",
      "type": "event"
    },
    {
      "anonymous": false,
      "inputs": [
        {
          "indexed": true,
          "internalType": "address",
          "name": "previousOwner",
          "type": "address"
        },
        {
          "indexed": true,
          "internalType": "address",
          "name": "newOwner",
          "type": "address"
        }
      ],
      "name": "OwnershipTransferred",
      "type": "event"
    },
    {
      "inputs": [
        {
          "internalType": "uint256",
          "name": "_ModelId",
          "type": "uint256"
        }
      ],
      "name": "getModel",
      "outputs": [
        {
          "components": [
            {
              "internalType": "uint256",
              "name": "ModelId",
              "type": "uint256"
            },
            {
              "internalType": "string",
              "name": "name",
              "type": "string"
            },
            {
              "internalType": "uint256",
              "name": "price",
              "type": "uint256"
            }
          ],
          "internalType": "struct ModelFactory.Model",
          "name": "",
          "type": "tuple"
        }
      ],
      "stateMutability": "view",
      "type": "function"
    },
    {
      "inputs": [
        {
          "internalType": "uint256",
          "name": "",
          "type": "uint256"
        }
      ],
      "name": "models",
      "outputs": [
        {
          "internalType": "uint256",
          "name": "ModelId",
          "type": "uint256"
        },
        {
          "internalType": "string",
          "name": "name",
          "type": "string"
        },
        {
          "internalType": "uint256",
          "name": "price",
          "type": "uint256"
        }
      ],
      "stateMutability": "view",
      "type": "function"
    },
    {
      "inputs": [],
      "name": "owner",
      "outputs": [
        {
          "internalType": "address",
          "name": "",
          "type": "address"
        }
      ],
      "stateMutability": "view",
      "type": "function"
    },
    {
      "inputs": [],
      "name": "renounceOwnership",
      "outputs": [],
      "stateMutability": "nonpayable",
      "type": "function"
    },
    {
      "inputs": [
        {
          "internalType": "address",
          "name": "newOwner",
          "type": "address"
        }
      ],
      "name": "transferOwnership",
      "outputs": [],
      "stateMutability": "nonpayable",
      "type": "function"
    }
  ],
  "bytecode": "0x60806040523480156200001157600080fd5b506200003262000026620000ca60201b60201c565b620000d260201b60201c565b6200007b6040518060400160405280600481526020017f4f70656c000000000000000000000000000000000000000000000000000000008152506123286200019660201b60201c565b620000c46040518060400160405280600481526020017f4f72656c000000000000000000000000000000000000000000000000000000008152506117706200019660201b60201c565b6200044c565b600033905090565b60008060009054906101000a900473ffffffffffffffffffffffffffffffffffffffff169050816000806101000a81548173ffffffffffffffffffffffffffffffffffffffff021916908373ffffffffffffffffffffffffffffffffffffffff1602179055508173ffffffffffffffffffffffffffffffffffffffff168173ffffffffffffffffffffffffffffffffffffffff167f8be0079c531659141344cd1fd0a4f28419497f9722a3daafe3b4186f6b6457e060405160405180910390a35050565b620001a6620000ca60201b60201c565b73ffffffffffffffffffffffffffffffffffffffff16620001cc6200029860201b60201c565b73ffffffffffffffffffffffffffffffffffffffff161462000225576040517f08c379a00000000000000000000000000000000000000000000000000000000081526004016200021c9062000379565b60405180910390fd5b6200023c6001620002c160201b620004751760201c565b6000620002556001620002d760201b6200048b1760201c565b90507ee8c0d1b851a830d7282781b58b9096c6f23b668460d35a2d200e51bfd0ff1f8184846040516200028b939291906200039b565b60405180910390a1505050565b60008060009054906101000a900473ffffffffffffffffffffffffffffffffffffffff16905090565b6001816000016000828254019250508190555050565b600081600001549050919050565b6000620002f282620003df565b620002fe8185620003ea565b93506200031081856020860162000405565b6200031b816200043b565b840191505092915050565b600062000335602083620003ea565b91507f4f776e61626c653a2063616c6c6572206973206e6f7420746865206f776e65726000830152602082019050919050565b6200037381620003fb565b82525050565b60006020820190508181036000830152620003948162000326565b9050919050565b6000606082019050620003b2600083018662000368565b8181036020830152620003c68185620002e5565b9050620003d7604083018462000368565b949350505050565b600081519050919050565b600082825260208201905092915050565b6000819050919050565b60005b838110156200042557808201518184015260208101905062000408565b8381111562000435576000848401525b50505050565b6000601f19601f8301169050919050565b6109c4806200045c6000396000f3fe608060405234801561001057600080fd5b50600436106100575760003560e01c80636a030ca91461005c5780636d3616941461008e578063715018a6146100be5780638da5cb5b146100c8578063f2fde38b146100e6575b600080fd5b610076600480360381019061007191906105d9565b610102565b60405161008593929190610814565b60405180910390f35b6100a860048036038101906100a391906105d9565b6101c4565b6040516100b591906107f2565b60405180910390f35b6100c66102cc565b005b6100d0610354565b6040516100dd9190610797565b60405180910390f35b61010060048036038101906100fb91906105b0565b61037d565b005b6002818154811061011257600080fd5b906000526020600020906003020160009150905080600001549080600101805461013b906108ee565b80601f0160208091040260200160405190810160405280929190818152602001828054610167906108ee565b80156101b45780601f10610189576101008083540402835291602001916101b4565b820191906000526020600020905b81548152906001019060200180831161019757829003601f168201915b5050505050908060020154905083565b6101cc610565565b60028281548110610206577f4e487b7100000000000000000000000000000000000000000000000000000000600052603260045260246000fd5b906000526020600020906003020160405180606001604052908160008201548152602001600182018054610239906108ee565b80601f0160208091040260200160405190810160405280929190818152602001828054610265906108ee565b80156102b25780601f10610287576101008083540402835291602001916102b2565b820191906000526020600020905b81548152906001019060200180831161029557829003601f168201915b505050505081526020016002820154815250509050919050565b6102d4610499565b73ffffffffffffffffffffffffffffffffffffffff166102f2610354565b73ffffffffffffffffffffffffffffffffffffffff1614610348576040517f08c379a000000000000000000000000000000000000000000000000000000000815260040161033f906107d2565b60405180910390fd5b61035260006104a1565b565b60008060009054906101000a900473ffffffffffffffffffffffffffffffffffffffff16905090565b610385610499565b73ffffffffffffffffffffffffffffffffffffffff166103a3610354565b73ffffffffffffffffffffffffffffffffffffffff16146103f9576040517f08c379a00000000000000000000000000000000000000000000000000000000081526004016103f0906107d2565b60405180910390fd5b600073ffffffffffffffffffffffffffffffffffffffff168173ffffffffffffffffffffffffffffffffffffffff161415610469576040517f08c379a0000000000000000000000000000000000000000000000000000000008152600401610460906107b2565b60405180910390fd5b610472816104a1565b50565b6001816000016000828254019250508190555050565b600081600001549050919050565b600033905090565b60008060009054906101000a900473ffffffffffffffffffffffffffffffffffffffff169050816000806101000a81548173ffffffffffffffffffffffffffffffffffffffff021916908373ffffffffffffffffffffffffffffffffffffffff1602179055508173ffffffffffffffffffffffffffffffffffffffff168173ffffffffffffffffffffffffffffffffffffffff167f8be0079c531659141344cd1fd0a4f28419497f9722a3daafe3b4186f6b6457e060405160405180910390a35050565b60405180606001604052806000815260200160608152602001600081525090565b60008135905061059581610960565b92915050565b6000813590506105aa81610977565b92915050565b6000602082840312156105c257600080fd5b60006105d084828501610586565b91505092915050565b6000602082840312156105eb57600080fd5b60006105f98482850161059b565b91505092915050565b61060b8161087f565b82525050565b600061061c82610852565b610626818561085d565b93506106368185602086016108bb565b61063f8161094f565b840191505092915050565b600061065582610852565b61065f818561086e565b935061066f8185602086016108bb565b6106788161094f565b840191505092915050565b600061069060268361086e565b91507f4f776e61626c653a206e6577206f776e657220697320746865207a65726f206160008301527f64647265737300000000000000000000000000000000000000000000000000006020830152604082019050919050565b60006106f660208361086e565b91507f4f776e61626c653a2063616c6c6572206973206e6f7420746865206f776e65726000830152602082019050919050565b60006060830160008301516107416000860182610779565b50602083015184820360208601526107598282610611565b915050604083015161076e6040860182610779565b508091505092915050565b610782816108b1565b82525050565b610791816108b1565b82525050565b60006020820190506107ac6000830184610602565b92915050565b600060208201905081810360008301526107cb81610683565b9050919050565b600060208201905081810360008301526107eb816106e9565b9050919050565b6000602082019050818103600083015261080c8184610729565b905092915050565b60006060820190506108296000830186610788565b818103602083015261083b818561064a565b905061084a6040830184610788565b949350505050565b600081519050919050565b600082825260208201905092915050565b600082825260208201905092915050565b600061088a82610891565b9050919050565b600073ffffffffffffffffffffffffffffffffffffffff82169050919050565b6000819050919050565b60005b838110156108d95780820151818401526020810190506108be565b838111156108e8576000848401525b50505050565b6000600282049050600182168061090657607f821691505b6020821081141561091a57610919610920565b5b50919050565b7f4e487b7100000000000000000000000000000000000000000000000000000000600052602260045260246000fd5b6000601f19601f8301169050919050565b6109698161087f565b811461097457600080fd5b50565b610980816108b1565b811461098b57600080fd5b5056fea2646970667358221220e2faafcc40c40601c599affc112737d6b724d75bab118f099da202c3e0f9f37664736f6c63430008000033",
  "linkReferences": {},
  "deployedLinkReferences": {}
}