{
  "_format": "hh-sol-artifact-1",
  "contractName": "ModelFactory",
  "sourceName": "contracts/ModelFactory.sol",
  "abi": [
    {
      "inputs": [],
      "stateMutability": "nonpayable",
      "type": "constructor"
    },
    {
      "anonymous": false,
      "inputs": [
        {
          "indexed": false,
          "internalType": "uint256",
          "name": "ModelId",
          "type": "uint256"
        },
        {
          "indexed": false,
          "internalType": "string",
          "name": "name",
          "type": "string"
        },
        {
          "indexed": false,
          "internalType": "uint256",
          "name": "dna",
          "type": "uint256"
        }
      ],
      "name": "NewModel",
      "type": "event"
    },
    {
      "anonymous": false,
      "inputs": [
        {
          "indexed": true,
          "internalType": "address",
          "name": "previousOwner",
          "type": "address"
        },
        {
          "indexed": true,
          "internalType": "address",
          "name": "newOwner",
          "type": "address"
        }
      ],
      "name": "OwnershipTransferred",
      "type": "event"
    },
    {
      "inputs": [],
      "name": "ModelCount",
      "outputs": [
        {
          "internalType": "uint256",
          "name": "",
          "type": "uint256"
        }
      ],
      "stateMutability": "view",
      "type": "function"
    },
    {
      "inputs": [
        {
          "internalType": "uint256",
          "name": "_ModelId",
          "type": "uint256"
        }
      ],
      "name": "getModel",
      "outputs": [
        {
          "components": [
            {
              "internalType": "uint256",
              "name": "ModelId",
              "type": "uint256"
            },
            {
              "internalType": "string",
              "name": "name",
              "type": "string"
            },
            {
              "internalType": "uint256",
              "name": "price",
              "type": "uint256"
            }
          ],
          "internalType": "struct ModelFactory.Model",
          "name": "",
          "type": "tuple"
        }
      ],
      "stateMutability": "view",
      "type": "function"
    },
    {
      "inputs": [],
      "name": "getModels",
      "outputs": [
        {
          "components": [
            {
              "internalType": "uint256",
              "name": "ModelId",
              "type": "uint256"
            },
            {
              "internalType": "string",
              "name": "name",
              "type": "string"
            },
            {
              "internalType": "uint256",
              "name": "price",
              "type": "uint256"
            }
          ],
          "internalType": "struct ModelFactory.Model[]",
          "name": "",
          "type": "tuple[]"
        }
      ],
      "stateMutability": "view",
      "type": "function"
    },
    {
      "inputs": [
        {
          "internalType": "uint256",
          "name": "",
          "type": "uint256"
        }
      ],
      "name": "models",
      "outputs": [
        {
          "internalType": "uint256",
          "name": "ModelId",
          "type": "uint256"
        },
        {
          "internalType": "string",
          "name": "name",
          "type": "string"
        },
        {
          "internalType": "uint256",
          "name": "price",
          "type": "uint256"
        }
      ],
      "stateMutability": "view",
      "type": "function"
    },
    {
      "inputs": [],
      "name": "owner",
      "outputs": [
        {
          "internalType": "address",
          "name": "",
          "type": "address"
        }
      ],
      "stateMutability": "view",
      "type": "function"
    },
    {
      "inputs": [],
      "name": "renounceOwnership",
      "outputs": [],
      "stateMutability": "nonpayable",
      "type": "function"
    },
    {
      "inputs": [
        {
          "internalType": "address",
          "name": "newOwner",
          "type": "address"
        }
      ],
      "name": "transferOwnership",
      "outputs": [],
      "stateMutability": "nonpayable",
      "type": "function"
    }
  ],
  "bytecode": "0x608060405234801561001057600080fd5b5061002d61002261003a60201b60201c565b61004260201b60201c565b6000600181905550610106565b600033905090565b60008060009054906101000a900473ffffffffffffffffffffffffffffffffffffffff169050816000806101000a81548173ffffffffffffffffffffffffffffffffffffffff021916908373ffffffffffffffffffffffffffffffffffffffff1602179055508173ffffffffffffffffffffffffffffffffffffffff168173ffffffffffffffffffffffffffffffffffffffff167f8be0079c531659141344cd1fd0a4f28419497f9722a3daafe3b4186f6b6457e060405160405180910390a35050565b610dbc806101156000396000f3fe608060405234801561001057600080fd5b506004361061007d5760003560e01c8063715018a61161005b578063715018a6146101025780638da5cb5b1461010c578063da7228031461012a578063f2fde38b146101485761007d565b806309817d45146100825780636a030ca9146100a05780636d361694146100d2575b600080fd5b61008a610164565b6040516100979190610abc565b60405180910390f35b6100ba60048036038101906100b5919061080a565b610351565b6040516100c993929190610b5b565b60405180910390f35b6100ec60048036038101906100e7919061080a565b610413565b6040516100f99190610b1e565b60405180910390f35b61010a61051b565b005b6101146105a3565b6040516101219190610aa1565b60405180910390f35b6101326105cc565b60405161013f9190610b40565b60405180910390f35b610162600480360381019061015d91906107e1565b6105d2565b005b6060600060015467ffffffffffffffff8111156101aa577f4e487b7100000000000000000000000000000000000000000000000000000000600052604160045260246000fd5b6040519080825280602002602001820160405280156101e357816020015b6101d0610796565b8152602001906001900390816101c85790505b50905060005b6001548110156103495760006002828154811061022f577f4e487b7100000000000000000000000000000000000000000000000000000000600052603260045260246000fd5b90600052602060002090600302019050806040518060600160405290816000820154815260200160018201805461026590610c6e565b80601f016020809104026020016040519081016040528092919081815260200182805461029190610c6e565b80156102de5780601f106102b3576101008083540402835291602001916102de565b820191906000526020600020905b8154815290600101906020018083116102c157829003601f168201915b5050505050815260200160028201548152505083838151811061032a577f4e487b7100000000000000000000000000000000000000000000000000000000600052603260045260246000fd5b602002602001018190525050808061034190610ca0565b9150506101e9565b508091505090565b6002818154811061036157600080fd5b906000526020600020906003020160009150905080600001549080600101805461038a90610c6e565b80601f01602080910402602001604051908101604052809291908181526020018280546103b690610c6e565b80156104035780601f106103d857610100808354040283529160200191610403565b820191906000526020600020905b8154815290600101906020018083116103e657829003601f168201915b5050505050908060020154905083565b61041b610796565b60028281548110610455577f4e487b7100000000000000000000000000000000000000000000000000000000600052603260045260246000fd5b90600052602060002090600302016040518060600160405290816000820154815260200160018201805461048890610c6e565b80601f01602080910402602001604051908101604052809291908181526020018280546104b490610c6e565b80156105015780601f106104d657610100808354040283529160200191610501565b820191906000526020600020905b8154815290600101906020018083116104e457829003601f168201915b505050505081526020016002820154815250509050919050565b6105236106ca565b73ffffffffffffffffffffffffffffffffffffffff166105416105a3565b73ffffffffffffffffffffffffffffffffffffffff1614610597576040517f08c379a000000000000000000000000000000000000000000000000000000000815260040161058e90610afe565b60405180910390fd5b6105a160006106d2565b565b60008060009054906101000a900473ffffffffffffffffffffffffffffffffffffffff16905090565b60015481565b6105da6106ca565b73ffffffffffffffffffffffffffffffffffffffff166105f86105a3565b73ffffffffffffffffffffffffffffffffffffffff161461064e576040517f08c379a000000000000000000000000000000000000000000000000000000000815260040161064590610afe565b60405180910390fd5b600073ffffffffffffffffffffffffffffffffffffffff168173ffffffffffffffffffffffffffffffffffffffff1614156106be576040517f08c379a00000000000000000000000000000000000000000000000000000000081526004016106b590610ade565b60405180910390fd5b6106c7816106d2565b50565b600033905090565b60008060009054906101000a900473ffffffffffffffffffffffffffffffffffffffff169050816000806101000a81548173ffffffffffffffffffffffffffffffffffffffff021916908373ffffffffffffffffffffffffffffffffffffffff1602179055508173ffffffffffffffffffffffffffffffffffffffff168173ffffffffffffffffffffffffffffffffffffffff167f8be0079c531659141344cd1fd0a4f28419497f9722a3daafe3b4186f6b6457e060405160405180910390a35050565b60405180606001604052806000815260200160608152602001600081525090565b6000813590506107c681610d58565b92915050565b6000813590506107db81610d6f565b92915050565b6000602082840312156107f357600080fd5b6000610801848285016107b7565b91505092915050565b60006020828403121561081c57600080fd5b600061082a848285016107cc565b91505092915050565b600061083f83836109e3565b905092915050565b61085081610bff565b82525050565b600061086182610ba9565b61086b8185610bcc565b93508360208202850161087d85610b99565b8060005b858110156108b9578484038952815161089a8582610833565b94506108a583610bbf565b925060208a01995050600181019050610881565b50829750879550505050505092915050565b60006108d682610bb4565b6108e08185610bdd565b93506108f0818560208601610c3b565b6108f981610d47565b840191505092915050565b600061090f82610bb4565b6109198185610bee565b9350610929818560208601610c3b565b61093281610d47565b840191505092915050565b600061094a602683610bee565b91507f4f776e61626c653a206e6577206f776e657220697320746865207a65726f206160008301527f64647265737300000000000000000000000000000000000000000000000000006020830152604082019050919050565b60006109b0602083610bee565b91507f4f776e61626c653a2063616c6c6572206973206e6f7420746865206f776e65726000830152602082019050919050565b60006060830160008301516109fb6000860182610a83565b5060208301518482036020860152610a1382826108cb565b9150506040830151610a286040860182610a83565b508091505092915050565b6000606083016000830151610a4b6000860182610a83565b5060208301518482036020860152610a6382826108cb565b9150506040830151610a786040860182610a83565b508091505092915050565b610a8c81610c31565b82525050565b610a9b81610c31565b82525050565b6000602082019050610ab66000830184610847565b92915050565b60006020820190508181036000830152610ad68184610856565b905092915050565b60006020820190508181036000830152610af78161093d565b9050919050565b60006020820190508181036000830152610b17816109a3565b9050919050565b60006020820190508181036000830152610b388184610a33565b905092915050565b6000602082019050610b556000830184610a92565b92915050565b6000606082019050610b706000830186610a92565b8181036020830152610b828185610904565b9050610b916040830184610a92565b949350505050565b6000819050602082019050919050565b600081519050919050565b600081519050919050565b6000602082019050919050565b600082825260208201905092915050565b600082825260208201905092915050565b600082825260208201905092915050565b6000610c0a82610c11565b9050919050565b600073ffffffffffffffffffffffffffffffffffffffff82169050919050565b6000819050919050565b60005b83811015610c59578082015181840152602081019050610c3e565b83811115610c68576000848401525b50505050565b60006002820490506001821680610c8657607f821691505b60208210811415610c9a57610c99610d18565b5b50919050565b6000610cab82610c31565b91507fffffffffffffffffffffffffffffffffffffffffffffffffffffffffffffffff821415610cde57610cdd610ce9565b5b600182019050919050565b7f4e487b7100000000000000000000000000000000000000000000000000000000600052601160045260246000fd5b7f4e487b7100000000000000000000000000000000000000000000000000000000600052602260045260246000fd5b6000601f19601f8301169050919050565b610d6181610bff565b8114610d6c57600080fd5b50565b610d7881610c31565b8114610d8357600080fd5b5056fea26469706673582212209a9f75dca62a2ad47fc94a67b17221dd5109dc20a4a5fc5f3543fc5378879b5064736f6c63430008000033",
  "linkReferences": {},
  "deployedLinkReferences": {}
}